{
  "contractName": "Marketplace",
  "abi": [
    {
      "constant": true,
      "inputs": [],
      "name": "name",
      "outputs": [
        {
          "name": "",
          "type": "string"
        }
      ],
      "payable": false,
      "stateMutability": "view",
      "type": "function"
    },
    {
      "inputs": [],
      "payable": false,
      "stateMutability": "nonpayable",
      "type": "constructor"
    }
  ],
  "bytecode": "0x608060405234801561001057600080fd5b506040805190810160405280601c81526020017f53494349205265616c20457374617465204d61726b6574706c616365000000008152506000908051906020019061005c929190610062565b50610107565b828054600181600116156101000203166002900490600052602060002090601f016020900481019282601f106100a357805160ff19168380011785556100d1565b828001600101855582156100d1579182015b828111156100d05782518255916020019190600101906100b5565b5b5090506100de91906100e2565b5090565b61010491905b808211156101005760008160009055506001016100e8565b5090565b90565b61019a806101166000396000f3fe60806040526004361061003b576000357c01000000000000000000000000000000000000000000000000000000009004806306fdde0314610040575b600080fd5b34801561004c57600080fd5b506100556100d0565b6040518080602001828103825283818151815260200191508051906020019080838360005b8381101561009557808201518184015260208101905061007a565b50505050905090810190601f1680156100c25780820380516001836020036101000a031916815260200191505b509250505060405180910390f35b60008054600181600116156101000203166002900480601f0160208091040260200160405190810160405280929190818152602001828054600181600116156101000203166002900480156101665780601f1061013b57610100808354040283529160200191610166565b820191906000526020600020905b81548152906001019060200180831161014957829003601f168201915b50505050508156fea165627a7a7230582003cd3f1185a9be8806630b37e7be5e5925dcf83dceea34b8df3091975d860d940029",
  "source": "pragma solidity >0.5.0;\r\n\r\ncontract Marketplace {\r\n    string public name;\r\n\r\n    constructor() public {\r\n        name = \"SICI Real Estate Marketplace\";\r\n    }\r\n}\r\n\r\n",
  "sourcePath": "C:/Users/Justin/Documents/Education/RMIT/SICI/sici-blockchain/src/contracts/Marketplace.sol",
  "compiler": {
    "name": "solc",
    "version": "0.5.1+commit.c8a2cb62.Emscripten.clang"
  },
  "schemaVersion": "3.0.2",
  "updatedAt": "2021-05-14T04:16:30.335Z",
  "devdoc": {
    "methods": {}
  },
  "userdoc": {
    "methods": {}
  }
}