{
  "contractName": "Marketplace",
  "abi": [
    {
      "constant": true,
      "inputs": [],
      "name": "name",
      "outputs": [
        {
          "name": "",
          "type": "string"
        }
      ],
      "payable": false,
      "stateMutability": "view",
      "type": "function"
    },
    {
      "constant": true,
      "inputs": [],
      "name": "permitCount",
      "outputs": [
        {
          "name": "",
          "type": "uint256"
        }
      ],
      "payable": false,
      "stateMutability": "view",
      "type": "function"
    },
    {
      "constant": true,
      "inputs": [
        {
          "name": "",
          "type": "uint256"
        }
      ],
      "name": "permits",
      "outputs": [
        {
          "name": "id",
          "type": "uint256"
        },
        {
          "name": "owner",
          "type": "address"
        },
        {
          "name": "propertyAddress",
          "type": "string"
        },
        {
          "name": "document",
          "type": "string"
        },
        {
          "name": "licenceNumber",
          "type": "string"
        },
        {
          "name": "status",
          "type": "uint8"
        }
      ],
      "payable": false,
      "stateMutability": "view",
      "type": "function"
    },
    {
      "constant": true,
      "inputs": [],
      "name": "loanCount",
      "outputs": [
        {
          "name": "",
          "type": "uint256"
        }
      ],
      "payable": false,
      "stateMutability": "view",
      "type": "function"
    },
    {
      "constant": true,
      "inputs": [
        {
          "name": "",
          "type": "uint256"
        }
      ],
      "name": "loans",
      "outputs": [
        {
          "name": "id",
          "type": "uint256"
        }
      ],
      "payable": false,
      "stateMutability": "view",
      "type": "function"
    },
    {
      "inputs": [],
      "payable": false,
      "stateMutability": "nonpayable",
      "type": "constructor"
    },
    {
      "anonymous": false,
      "inputs": [
        {
          "indexed": false,
          "name": "id",
          "type": "uint256"
        },
        {
          "indexed": false,
          "name": "owner",
          "type": "address"
        },
        {
          "indexed": false,
          "name": "propertyAddress",
          "type": "string"
        },
        {
          "indexed": false,
          "name": "document",
          "type": "string"
        },
        {
          "indexed": false,
          "name": "licenceNumber",
          "type": "string"
        },
        {
          "indexed": false,
          "name": "status",
          "type": "uint8"
        }
      ],
      "name": "PermitCreated",
      "type": "event"
    },
    {
      "anonymous": false,
      "inputs": [
        {
          "indexed": false,
          "name": "id",
          "type": "uint256"
        },
        {
          "indexed": false,
          "name": "authBy",
          "type": "address"
        },
        {
          "indexed": false,
          "name": "status",
          "type": "uint8"
        }
      ],
      "name": "PermitStatus",
      "type": "event"
    },
    {
      "constant": false,
      "inputs": [
        {
          "name": "_propertyAddress",
          "type": "string"
        },
        {
          "name": "_document",
          "type": "string"
        },
        {
          "name": "_licenceNumber",
          "type": "string"
        },
        {
          "name": "_status",
          "type": "uint8"
        }
      ],
      "name": "createPermit",
      "outputs": [],
      "payable": false,
      "stateMutability": "nonpayable",
      "type": "function"
    },
    {
      "constant": false,
      "inputs": [
        {
          "name": "_id",
          "type": "uint256"
        },
        {
          "name": "_status",
          "type": "uint8"
        }
      ],
      "name": "updatePermit",
      "outputs": [],
      "payable": false,
      "stateMutability": "nonpayable",
      "type": "function"
    }
  ],
  "bytecode": "0x60806040526000600155600060035534801561001a57600080fd5b506040805190810160405280601c81526020017f53494349205265616c20457374617465204d61726b6574706c616365000000008152506000908051906020019061006692919061006c565b50610111565b828054600181600116156101000203166002900490600052602060002090601f016020900481019282601f106100ad57805160ff19168380011785556100db565b828001600101855582156100db579182015b828111156100da5782518255916020019190600101906100bf565b5b5090506100e891906100ec565b5090565b61010e91905b8082111561010a5760008160009055506001016100f2565b5090565b90565b61110680620001216000396000f3fe60806040526004361061007d576000357c01000000000000000000000000000000000000000000000000000000009004806306fdde031461008257806356ee4cd014610112578063670afd6b1461013d5780638521b6a414610185578063ce63094d14610360578063e1ec3c681461038b578063ee9568b1146103da575b600080fd5b34801561008e57600080fd5b506100976105dd565b6040518080602001828103825283818151815260200191508051906020019080838360005b838110156100d75780820151818401526020810190506100bc565b50505050905090810190601f1680156101045780820380516001836020036101000a031916815260200191505b509250505060405180910390f35b34801561011e57600080fd5b5061012761067b565b6040518082815260200191505060405180910390f35b34801561014957600080fd5b506101836004803603604081101561016057600080fd5b8101908080359060200190929190803560ff169060200190929190505050610681565b005b34801561019157600080fd5b506101be600480360360208110156101a857600080fd5b81019080803590602001909291905050506109c9565b604051808781526020018673ffffffffffffffffffffffffffffffffffffffff1673ffffffffffffffffffffffffffffffffffffffff16815260200180602001806020018060200185600381111561021257fe5b60ff168152602001848103845288818151815260200191508051906020019080838360005b83811015610252578082015181840152602081019050610237565b50505050905090810190601f16801561027f5780820380516001836020036101000a031916815260200191505b50848103835287818151815260200191508051906020019080838360005b838110156102b857808201518184015260208101905061029d565b50505050905090810190601f1680156102e55780820380516001836020036101000a031916815260200191505b50848103825286818151815260200191508051906020019080838360005b8381101561031e578082015181840152602081019050610303565b50505050905090810190601f16801561034b5780820380516001836020036101000a031916815260200191505b50995050505050505050505060405180910390f35b34801561036c57600080fd5b50610375610bfa565b6040518082815260200191505060405180910390f35b34801561039757600080fd5b506103c4600480360360208110156103ae57600080fd5b8101908080359060200190929190505050610c00565b6040518082815260200191505060405180910390f35b3480156103e657600080fd5b506105db600480360360808110156103fd57600080fd5b810190808035906020019064010000000081111561041a57600080fd5b82018360208201111561042c57600080fd5b8035906020019184600183028401116401000000008311171561044e57600080fd5b91908080601f016020809104026020016040519081016040528093929190818152602001838380828437600081840152601f19601f820116905080830192505050505050509192919290803590602001906401000000008111156104b157600080fd5b8201836020820111156104c357600080fd5b803590602001918460018302840111640100000000831117156104e557600080fd5b91908080601f016020809104026020016040519081016040528093929190818152602001838380828437600081840152601f19601f8201169050808301925050505050505091929192908035906020019064010000000081111561054857600080fd5b82018360208201111561055a57600080fd5b8035906020019184600183028401116401000000008311171561057c57600080fd5b91908080601f016020809104026020016040519081016040528093929190818152602001838380828437600081840152601f19601f820116905080830192505050505050509192919290803560ff169060200190929190505050610c1e565b005b60008054600181600116156101000203166002900480601f0160208091040260200160405190810160405280929190818152602001828054600181600116156101000203166002900480156106735780601f1061064857610100808354040283529160200191610673565b820191906000526020600020905b81548152906001019060200180831161065657829003601f168201915b505050505081565b60015481565b610689610fdd565b6002600084815260200190815260200160002060c06040519081016040529081600082015481526020016001820160009054906101000a900473ffffffffffffffffffffffffffffffffffffffff1673ffffffffffffffffffffffffffffffffffffffff1673ffffffffffffffffffffffffffffffffffffffff168152602001600282018054600181600116156101000203166002900480601f0160208091040260200160405190810160405280929190818152602001828054600181600116156101000203166002900480156107a15780601f10610776576101008083540402835291602001916107a1565b820191906000526020600020905b81548152906001019060200180831161078457829003601f168201915b50505050508152602001600382018054600181600116156101000203166002900480601f0160208091040260200160405190810160405280929190818152602001828054600181600116156101000203166002900480156108435780601f1061081857610100808354040283529160200191610843565b820191906000526020600020905b81548152906001019060200180831161082657829003601f168201915b50505050508152602001600482018054600181600116156101000203166002900480601f0160208091040260200160405190810160405280929190818152602001828054600181600116156101000203166002900480156108e55780601f106108ba576101008083540402835291602001916108e5565b820191906000526020600020905b8154815290600101906020018083116108c857829003601f168201915b505050505081526020016005820160009054906101000a900460ff16600381111561090c57fe5b600381111561091757fe5b815250509050818160a00190600381111561092e57fe5b9081600381111561093b57fe5b815250507f6db226799563a72c008659ef8e7336d8d90759ef38812270def4e505855908e083338360a00151604051808481526020018373ffffffffffffffffffffffffffffffffffffffff1673ffffffffffffffffffffffffffffffffffffffff1681526020018260038111156109af57fe5b60ff168152602001935050505060405180910390a1505050565b60026020528060005260406000206000915090508060000154908060010160009054906101000a900473ffffffffffffffffffffffffffffffffffffffff1690806002018054600181600116156101000203166002900480601f016020809104026020016040519081016040528092919081815260200182805460018160011615610100020316600290048015610aa15780601f10610a7657610100808354040283529160200191610aa1565b820191906000526020600020905b815481529060010190602001808311610a8457829003601f168201915b505050505090806003018054600181600116156101000203166002900480601f016020809104026020016040519081016040528092919081815260200182805460018160011615610100020316600290048015610b3f5780601f10610b1457610100808354040283529160200191610b3f565b820191906000526020600020905b815481529060010190602001808311610b2257829003601f168201915b505050505090806004018054600181600116156101000203166002900480601f016020809104026020016040519081016040528092919081815260200182805460018160011615610100020316600290048015610bdd5780601f10610bb257610100808354040283529160200191610bdd565b820191906000526020600020905b815481529060010190602001808311610bc057829003601f168201915b5050505050908060050160009054906101000a900460ff16905086565b60035481565b60046020528060005260406000206000915090508060000154905081565b60008451111515610c2e57600080fd5b60008351111515610c3e57600080fd5b60008251111515610c4e57600080fd5b60006003811115610c5b57fe5b816003811115610c6757fe5b141515610c7357600080fd5b737e14e1b59af858c2e366b1d902abbb743275f69473ffffffffffffffffffffffffffffffffffffffff163373ffffffffffffffffffffffffffffffffffffffff16141515610cc157600080fd5b60016000815480929190600101919050555060c06040519081016040528060015481526020013373ffffffffffffffffffffffffffffffffffffffff168152602001858152602001848152602001838152602001826003811115610d2157fe5b8152506002600060015481526020019081526020016000206000820151816000015560208201518160010160006101000a81548173ffffffffffffffffffffffffffffffffffffffff021916908373ffffffffffffffffffffffffffffffffffffffff1602179055506040820151816002019080519060200190610da6929190611035565b506060820151816003019080519060200190610dc3929190611035565b506080820151816004019080519060200190610de0929190611035565b5060a08201518160050160006101000a81548160ff02191690836003811115610e0557fe5b02179055509050507f8b5b3c14b17390b209c169b886419a26bcf5f434edc6e56182834e2b8eb6835c6001543386868686604051808781526020018673ffffffffffffffffffffffffffffffffffffffff1673ffffffffffffffffffffffffffffffffffffffff168152602001806020018060200180602001856003811115610e8a57fe5b60ff168152602001848103845288818151815260200191508051906020019080838360005b83811015610eca578082015181840152602081019050610eaf565b50505050905090810190601f168015610ef75780820380516001836020036101000a031916815260200191505b50848103835287818151815260200191508051906020019080838360005b83811015610f30578082015181840152602081019050610f15565b50505050905090810190601f168015610f5d5780820380516001836020036101000a031916815260200191505b50848103825286818151815260200191508051906020019080838360005b83811015610f96578082015181840152602081019050610f7b565b50505050905090810190601f168015610fc35780820380516001836020036101000a031916815260200191505b50995050505050505050505060405180910390a150505050565b60c06040519081016040528060008152602001600073ffffffffffffffffffffffffffffffffffffffff1681526020016060815260200160608152602001606081526020016000600381111561102f57fe5b81525090565b828054600181600116156101000203166002900490600052602060002090601f016020900481019282601f1061107657805160ff19168380011785556110a4565b828001600101855582156110a4579182015b828111156110a3578251825591602001919060010190611088565b5b5090506110b191906110b5565b5090565b6110d791905b808211156110d35760008160009055506001016110bb565b5090565b9056fea165627a7a723058209f9adc3ba8efe42778092ce251ce91052ff0ac9390a7d0499cd4bf0fb2f05d640029",
  "source": "pragma solidity >0.5.0;\r\n\r\ncontract Marketplace {\r\n    string public name;\r\n\r\n    uint public permitCount = 0;\r\n    mapping(uint => PermitApplication) public permits;\r\n\r\n    uint public loanCount = 0;\r\n    mapping(uint => LoanApplication) public loans;\r\n\r\n    // enum to control the states of applications rather than multiple booleans\r\n    enum applicationStatus {\r\n        applied,\r\n        approved,\r\n        denied,\r\n        purchased\r\n    }\r\n    applicationStatus constant default_value = applicationStatus.applied;\r\n\r\n\r\n    // TODO find a way for this to take a document - buffer maybe?\r\n    struct PermitApplication {\r\n        uint id;\r\n        address owner;\r\n        string propertyAddress;\r\n        string document;\r\n        string licenceNumber;\r\n        applicationStatus status; \r\n    }\r\n\r\n    struct LoanApplication {\r\n        uint id;\r\n    }\r\n\r\n    event PermitCreated(\r\n        uint id,\r\n        address owner,\r\n        string propertyAddress,\r\n        string document,\r\n        string licenceNumber,\r\n        applicationStatus status\r\n        );\r\n\r\n    event PermitStatus(\r\n        uint id,\r\n        address authBy,\r\n        applicationStatus status\r\n    );\r\n        \r\n    \r\n\r\n    constructor() public {\r\n        name = \"SICI Real Estate Marketplace\";\r\n    }\r\n\r\n\r\n    function createPermit(string memory _propertyAddress, string memory _document, string memory _licenceNumber, applicationStatus _status) public {\r\n        // requires strings to not be empty\r\n        require(bytes(_propertyAddress).length > 0);\r\n        require(bytes(_document).length > 0);\r\n        require(bytes(_licenceNumber).length > 0);\r\n        // status of a new application must be applied ONLY\r\n        require(_status == applicationStatus.applied);\r\n        // only be created by a seller TODO find better implementation of this\r\n        require(msg.sender == 0x7e14E1b59aF858C2E366B1d902aBBB743275F694);\r\n\r\n        permitCount++;\r\n        permits[permitCount] = PermitApplication(permitCount, msg.sender, _propertyAddress, _document, _licenceNumber, _status);\r\n\r\n        emit PermitCreated(permitCount, msg.sender, _propertyAddress, _document, _licenceNumber, _status);\r\n    }\r\n\r\n    function updatePermit(uint _id, applicationStatus _status) public {\r\n        // fetch permit\r\n        PermitApplication memory _permit = permits[_id];\r\n        // validate permit exists\r\n        // require(_permit.id > 0 && _permit.id < permitCount);\r\n        // validate that the status is not the same\r\n        // require(_permit.status != _status);\r\n        // only be updated by an authority TODO find better implementation of this\r\n        // require(msg.sender == 0x2b0d61c05D8caFF492E1d6a6D3451437801D4b6B);\r\n        // update permit\r\n        _permit.status = _status;\r\n        // trigger event\r\n        emit PermitStatus(_id, msg.sender, _permit.status);\r\n    }\r\n}\r\n\r\n",
  "sourcePath": "C:/Users/Justin/Documents/Education/RMIT/SICI/sici-blockchain/src/contracts/Marketplace.sol",
  "compiler": {
    "name": "solc",
    "version": "0.5.1+commit.c8a2cb62.Emscripten.clang"
  },
  "schemaVersion": "3.0.2",
  "updatedAt": "2021-05-15T00:35:45.909Z",
  "devdoc": {
    "methods": {}
  },
  "userdoc": {
    "methods": {}
  }
}