{
  "contractName": "Marketplace",
  "abi": [
    {
      "constant": true,
      "inputs": [],
      "name": "name",
      "outputs": [
        {
          "name": "",
          "type": "string"
        }
      ],
      "payable": false,
      "stateMutability": "view",
      "type": "function",
      "signature": "0x06fdde03"
    },
    {
      "constant": true,
      "inputs": [],
      "name": "permitCount",
      "outputs": [
        {
          "name": "",
          "type": "uint256"
        }
      ],
      "payable": false,
      "stateMutability": "view",
      "type": "function",
      "signature": "0x56ee4cd0"
    },
    {
      "constant": true,
      "inputs": [
        {
          "name": "",
          "type": "uint256"
        }
      ],
      "name": "permits",
      "outputs": [
        {
          "name": "id",
          "type": "uint256"
        },
        {
          "name": "owner",
          "type": "address"
        },
        {
          "name": "propertyAddress",
          "type": "string"
        },
        {
          "name": "document",
          "type": "string"
        },
        {
          "name": "licenceNumber",
          "type": "string"
        },
        {
          "name": "status",
          "type": "uint8"
        }
      ],
      "payable": false,
      "stateMutability": "view",
      "type": "function",
      "signature": "0x8521b6a4"
    },
    {
      "constant": true,
      "inputs": [],
      "name": "loanCount",
      "outputs": [
        {
          "name": "",
          "type": "uint256"
        }
      ],
      "payable": false,
      "stateMutability": "view",
      "type": "function",
      "signature": "0xce63094d"
    },
    {
      "constant": true,
      "inputs": [
        {
          "name": "",
          "type": "uint256"
        }
      ],
      "name": "loans",
      "outputs": [
        {
          "name": "id",
          "type": "uint256"
        }
      ],
      "payable": false,
      "stateMutability": "view",
      "type": "function",
      "signature": "0xe1ec3c68"
    },
    {
      "inputs": [],
      "payable": false,
      "stateMutability": "nonpayable",
      "type": "constructor",
      "signature": "constructor"
    },
    {
      "anonymous": false,
      "inputs": [
        {
          "indexed": false,
          "name": "id",
          "type": "uint256"
        },
        {
          "indexed": false,
          "name": "owner",
          "type": "address"
        },
        {
          "indexed": false,
          "name": "propertyAddress",
          "type": "string"
        },
        {
          "indexed": false,
          "name": "document",
          "type": "string"
        },
        {
          "indexed": false,
          "name": "licenceNumber",
          "type": "string"
        },
        {
          "indexed": false,
          "name": "status",
          "type": "uint8"
        }
      ],
      "name": "PermitCreated",
      "type": "event",
      "signature": "0x8b5b3c14b17390b209c169b886419a26bcf5f434edc6e56182834e2b8eb6835c"
    },
    {
      "anonymous": false,
      "inputs": [
        {
          "indexed": false,
          "name": "id",
          "type": "uint256"
        },
        {
          "indexed": false,
          "name": "status",
          "type": "uint8"
        },
        {
          "indexed": false,
          "name": "authBy",
          "type": "address"
        }
      ],
      "name": "PermitStatus",
      "type": "event",
      "signature": "0xa19f1ca9de769052f3612836f1164482191e0d4c01642a97cea205f8383eda74"
    },
    {
      "constant": false,
      "inputs": [
        {
          "name": "_propertyAddress",
          "type": "string"
        },
        {
          "name": "_document",
          "type": "string"
        },
        {
          "name": "_licenceNumber",
          "type": "string"
        },
        {
          "name": "_status",
          "type": "uint8"
        }
      ],
      "name": "createPermit",
      "outputs": [],
      "payable": false,
      "stateMutability": "nonpayable",
      "type": "function",
      "signature": "0xee9568b1"
    },
    {
      "constant": false,
      "inputs": [
        {
          "name": "_id",
          "type": "uint256"
        },
        {
          "name": "_status",
          "type": "uint8"
        }
      ],
      "name": "updatePermit",
      "outputs": [],
      "payable": false,
      "stateMutability": "nonpayable",
      "type": "function",
      "signature": "0x670afd6b"
    }
  ],
  "bytecode": "0x6080604052600060015560006003553480156200001b57600080fd5b506040805190810160405280601c81526020017f53494349205265616c20457374617465204d61726b6574706c61636500000000815250600090805190602001906200006992919062000070565b506200011f565b828054600181600116156101000203166002900490600052602060002090601f016020900481019282601f10620000b357805160ff1916838001178555620000e4565b82800160010185558215620000e4579182015b82811115620000e3578251825591602001919060010190620000c6565b5b509050620000f39190620000f7565b5090565b6200011c91905b8082111562000118576000816000905550600101620000fe565b5090565b90565b6112ef806200012f6000396000f3fe60806040526004361061007d576000357c01000000000000000000000000000000000000000000000000000000009004806306fdde031461008257806356ee4cd014610112578063670afd6b1461013d5780638521b6a414610185578063ce63094d14610360578063e1ec3c681461038b578063ee9568b1146103da575b600080fd5b34801561008e57600080fd5b506100976105dd565b6040518080602001828103825283818151815260200191508051906020019080838360005b838110156100d75780820151818401526020810190506100bc565b50505050905090810190601f1680156101045780820380516001836020036101000a031916815260200191505b509250505060405180910390f35b34801561011e57600080fd5b5061012761067b565b6040518082815260200191505060405180910390f35b34801561014957600080fd5b506101836004803603604081101561016057600080fd5b8101908080359060200190929190803560ff169060200190929190505050610681565b005b34801561019157600080fd5b506101be600480360360208110156101a857600080fd5b8101908080359060200190929190505050610bb2565b604051808781526020018673ffffffffffffffffffffffffffffffffffffffff1673ffffffffffffffffffffffffffffffffffffffff16815260200180602001806020018060200185600381111561021257fe5b60ff168152602001848103845288818151815260200191508051906020019080838360005b83811015610252578082015181840152602081019050610237565b50505050905090810190601f16801561027f5780820380516001836020036101000a031916815260200191505b50848103835287818151815260200191508051906020019080838360005b838110156102b857808201518184015260208101905061029d565b50505050905090810190601f1680156102e55780820380516001836020036101000a031916815260200191505b50848103825286818151815260200191508051906020019080838360005b8381101561031e578082015181840152602081019050610303565b50505050905090810190601f16801561034b5780820380516001836020036101000a031916815260200191505b50995050505050505050505060405180910390f35b34801561036c57600080fd5b50610375610de3565b6040518082815260200191505060405180910390f35b34801561039757600080fd5b506103c4600480360360208110156103ae57600080fd5b8101908080359060200190929190505050610de9565b6040518082815260200191505060405180910390f35b3480156103e657600080fd5b506105db600480360360808110156103fd57600080fd5b810190808035906020019064010000000081111561041a57600080fd5b82018360208201111561042c57600080fd5b8035906020019184600183028401116401000000008311171561044e57600080fd5b91908080601f016020809104026020016040519081016040528093929190818152602001838380828437600081840152601f19601f820116905080830192505050505050509192919290803590602001906401000000008111156104b157600080fd5b8201836020820111156104c357600080fd5b803590602001918460018302840111640100000000831117156104e557600080fd5b91908080601f016020809104026020016040519081016040528093929190818152602001838380828437600081840152601f19601f8201169050808301925050505050505091929192908035906020019064010000000081111561054857600080fd5b82018360208201111561055a57600080fd5b8035906020019184600183028401116401000000008311171561057c57600080fd5b91908080601f016020809104026020016040519081016040528093929190818152602001838380828437600081840152601f19601f820116905080830192505050505050509192919290803560ff169060200190929190505050610e07565b005b60008054600181600116156101000203166002900480601f0160208091040260200160405190810160405280929190818152602001828054600181600116156101000203166002900480156106735780601f1061064857610100808354040283529160200191610673565b820191906000526020600020905b81548152906001019060200180831161065657829003601f168201915b505050505081565b60015481565b6106896111c6565b6002600084815260200190815260200160002060c06040519081016040529081600082015481526020016001820160009054906101000a900473ffffffffffffffffffffffffffffffffffffffff1673ffffffffffffffffffffffffffffffffffffffff1673ffffffffffffffffffffffffffffffffffffffff168152602001600282018054600181600116156101000203166002900480601f0160208091040260200160405190810160405280929190818152602001828054600181600116156101000203166002900480156107a15780601f10610776576101008083540402835291602001916107a1565b820191906000526020600020905b81548152906001019060200180831161078457829003601f168201915b50505050508152602001600382018054600181600116156101000203166002900480601f0160208091040260200160405190810160405280929190818152602001828054600181600116156101000203166002900480156108435780601f1061081857610100808354040283529160200191610843565b820191906000526020600020905b81548152906001019060200180831161082657829003601f168201915b50505050508152602001600482018054600181600116156101000203166002900480601f0160208091040260200160405190810160405280929190818152602001828054600181600116156101000203166002900480156108e55780601f106108ba576101008083540402835291602001916108e5565b820191906000526020600020905b8154815290600101906020018083116108c857829003601f168201915b505050505081526020016005820160009054906101000a900460ff16600381111561090c57fe5b600381111561091757fe5b815250509050600081600001511180156109375750600154816000015111155b151561094257600080fd5b8060a00151600381111561095257fe5b82600381111561095e57fe5b1415151561096b57600080fd5b6000600381111561097857fe5b82600381111561098457fe5b1415151561099157600080fd5b3373ffffffffffffffffffffffffffffffffffffffff16816020015173ffffffffffffffffffffffffffffffffffffffff16141515156109d057600080fd5b732b0d61c05d8caff492e1d6a6d3451437801d4b6b73ffffffffffffffffffffffffffffffffffffffff163373ffffffffffffffffffffffffffffffffffffffff16141515610a1e57600080fd5b818160a001906003811115610a2f57fe5b90816003811115610a3c57fe5b8152505080600260008581526020019081526020016000206000820151816000015560208201518160010160006101000a81548173ffffffffffffffffffffffffffffffffffffffff021916908373ffffffffffffffffffffffffffffffffffffffff1602179055506040820151816002019080519060200190610ac192919061121e565b506060820151816003019080519060200190610ade92919061121e565b506080820151816004019080519060200190610afb92919061121e565b5060a08201518160050160006101000a81548160ff02191690836003811115610b2057fe5b02179055509050507fa19f1ca9de769052f3612836f1164482191e0d4c01642a97cea205f8383eda74838260a001513360405180848152602001836003811115610b6657fe5b60ff1681526020018273ffffffffffffffffffffffffffffffffffffffff1673ffffffffffffffffffffffffffffffffffffffff168152602001935050505060405180910390a1505050565b60026020528060005260406000206000915090508060000154908060010160009054906101000a900473ffffffffffffffffffffffffffffffffffffffff1690806002018054600181600116156101000203166002900480601f016020809104026020016040519081016040528092919081815260200182805460018160011615610100020316600290048015610c8a5780601f10610c5f57610100808354040283529160200191610c8a565b820191906000526020600020905b815481529060010190602001808311610c6d57829003601f168201915b505050505090806003018054600181600116156101000203166002900480601f016020809104026020016040519081016040528092919081815260200182805460018160011615610100020316600290048015610d285780601f10610cfd57610100808354040283529160200191610d28565b820191906000526020600020905b815481529060010190602001808311610d0b57829003601f168201915b505050505090806004018054600181600116156101000203166002900480601f016020809104026020016040519081016040528092919081815260200182805460018160011615610100020316600290048015610dc65780601f10610d9b57610100808354040283529160200191610dc6565b820191906000526020600020905b815481529060010190602001808311610da957829003601f168201915b5050505050908060050160009054906101000a900460ff16905086565b60035481565b60046020528060005260406000206000915090508060000154905081565b60008451111515610e1757600080fd5b60008351111515610e2757600080fd5b60008251111515610e3757600080fd5b60006003811115610e4457fe5b816003811115610e5057fe5b141515610e5c57600080fd5b737e14e1b59af858c2e366b1d902abbb743275f69473ffffffffffffffffffffffffffffffffffffffff163373ffffffffffffffffffffffffffffffffffffffff16141515610eaa57600080fd5b60016000815480929190600101919050555060c06040519081016040528060015481526020013373ffffffffffffffffffffffffffffffffffffffff168152602001858152602001848152602001838152602001826003811115610f0a57fe5b8152506002600060015481526020019081526020016000206000820151816000015560208201518160010160006101000a81548173ffffffffffffffffffffffffffffffffffffffff021916908373ffffffffffffffffffffffffffffffffffffffff1602179055506040820151816002019080519060200190610f8f92919061121e565b506060820151816003019080519060200190610fac92919061121e565b506080820151816004019080519060200190610fc992919061121e565b5060a08201518160050160006101000a81548160ff02191690836003811115610fee57fe5b02179055509050507f8b5b3c14b17390b209c169b886419a26bcf5f434edc6e56182834e2b8eb6835c6001543386868686604051808781526020018673ffffffffffffffffffffffffffffffffffffffff1673ffffffffffffffffffffffffffffffffffffffff16815260200180602001806020018060200185600381111561107357fe5b60ff168152602001848103845288818151815260200191508051906020019080838360005b838110156110b3578082015181840152602081019050611098565b50505050905090810190601f1680156110e05780820380516001836020036101000a031916815260200191505b50848103835287818151815260200191508051906020019080838360005b838110156111195780820151818401526020810190506110fe565b50505050905090810190601f1680156111465780820380516001836020036101000a031916815260200191505b50848103825286818151815260200191508051906020019080838360005b8381101561117f578082015181840152602081019050611164565b50505050905090810190601f1680156111ac5780820380516001836020036101000a031916815260200191505b50995050505050505050505060405180910390a150505050565b60c06040519081016040528060008152602001600073ffffffffffffffffffffffffffffffffffffffff1681526020016060815260200160608152602001606081526020016000600381111561121857fe5b81525090565b828054600181600116156101000203166002900490600052602060002090601f016020900481019282601f1061125f57805160ff191683800117855561128d565b8280016001018555821561128d579182015b8281111561128c578251825591602001919060010190611271565b5b50905061129a919061129e565b5090565b6112c091905b808211156112bc5760008160009055506001016112a4565b5090565b9056fea165627a7a72305820111ecdad357f925f245689bb9c74dd4b397bd1f7306dd00fbd857a8721670a560029",
  "source": "pragma solidity >0.5.0;\r\n\r\ncontract Marketplace {\r\n    string public name;\r\n\r\n    uint public permitCount = 0;\r\n    mapping(uint => PermitApplication) public permits;\r\n\r\n    uint public loanCount = 0;\r\n    mapping(uint => LoanApplication) public loans;\r\n\r\n    // mapping(address => Account) public accounts;\r\n\r\n    // enum to control the states of applications rather than multiple booleans\r\n    enum applicationStatus {\r\n        applied,\r\n        approved,\r\n        denied,\r\n        purchased\r\n    }\r\n    applicationStatus constant default_value = applicationStatus.applied;\r\n\r\n    enum accountType {\r\n        deployer,\r\n        seller,\r\n        authority,\r\n        buyer,\r\n        bank\r\n    }\r\n\r\n    struct Account {\r\n        address accountAddress;\r\n        accountType account;\r\n    }\r\n\r\n    // TODO find a way for this to take a document - buffer maybe?\r\n    struct PermitApplication {\r\n        uint id;\r\n        address owner;\r\n        string propertyAddress;\r\n        string document;\r\n        string licenceNumber;\r\n        applicationStatus status; \r\n    }\r\n\r\n    struct LoanApplication {\r\n        uint id;\r\n    }\r\n\r\n    event PermitCreated(\r\n        uint id,\r\n        address owner,\r\n        string propertyAddress,\r\n        string document,\r\n        string licenceNumber,\r\n        applicationStatus status\r\n        );\r\n\r\n    event PermitStatus(\r\n        uint id,\r\n        applicationStatus status,\r\n        address authBy\r\n    );\r\n        \r\n    \r\n\r\n    constructor() public {\r\n        name = \"SICI Real Estate Marketplace\";\r\n    }\r\n\r\n\r\n    function createPermit(string memory _propertyAddress, string memory _document, string memory _licenceNumber, applicationStatus _status) public {\r\n        // requires strings to not be empty\r\n        require(bytes(_propertyAddress).length > 0);\r\n        require(bytes(_document).length > 0);\r\n        require(bytes(_licenceNumber).length > 0);\r\n        // status of a new application must be applied ONLY\r\n        require(_status == applicationStatus.applied);\r\n        // only be created by a seller TODO find better implementation of this\r\n        require(msg.sender == 0x7e14E1b59aF858C2E366B1d902aBBB743275F694);\r\n\r\n        permitCount++;\r\n        permits[permitCount] = PermitApplication(permitCount, msg.sender, _propertyAddress, _document, _licenceNumber, _status);\r\n\r\n        emit PermitCreated(permitCount, msg.sender, _propertyAddress, _document, _licenceNumber, _status);\r\n    }\r\n\r\n    /**\r\n    * Changes the permits status\r\n    * @param _id permit ID\r\n    * @param _status status that is being applied to the permit\r\n     */\r\n    function updatePermit(uint _id, applicationStatus _status) public {\r\n        // fetch permit\r\n        PermitApplication memory _permit = permits[_id];\r\n        // validate permit exists\r\n        require(_permit.id > 0 && _permit.id <= permitCount);\r\n        // validate that the status is not the same - NOT SURE THIS WORKS CORRECTLY\r\n        require(_status != _permit.status);\r\n        // validate that it is not being updated back to applied\r\n        require(_status != applicationStatus.applied);\r\n\r\n        // TODO find better implementation of auth checking\r\n        // seller can not update their own permit\r\n        require(_permit.owner != msg.sender);\r\n        // only be updated by an authority \r\n        require(msg.sender == 0x2b0d61c05D8caFF492E1d6a6D3451437801D4b6B);\r\n\r\n\r\n        // update permit\r\n        _permit.status = _status;\r\n        permits[_id] = _permit;\r\n        // trigger event\r\n        emit PermitStatus(_id, _permit.status, msg.sender);\r\n    }\r\n}\r\n\r\n",
  "sourcePath": "C:/Users/Justin/Documents/Education/RMIT/SICI/blockchain-app/src/contracts/Marketplace.sol",
  "compiler": {
    "name": "solc",
    "version": "0.5.1+commit.c8a2cb62.Emscripten.clang"
  },
  "schemaVersion": "3.0.2",
  "updatedAt": "2021-06-02T05:38:06.622Z",
  "devdoc": {
    "methods": {
      "updatePermit(uint256,uint8)": {
        "params": {
          "_id": "permit ID\r",
          "_status": "status that is being applied to the permit\r"
        }
      }
    }
  },
  "userdoc": {
    "methods": {
      "updatePermit(uint256,uint8)": {
        "notice": "Changes the permits status\r"
      }
    }
  }
}