{
  "contractName": "Marketplace",
  "abi": [
    {
      "constant": true,
      "inputs": [],
      "name": "name",
      "outputs": [
        {
          "name": "",
          "type": "string"
        }
      ],
      "payable": false,
      "stateMutability": "view",
      "type": "function"
    },
    {
      "constant": true,
      "inputs": [],
      "name": "permitCount",
      "outputs": [
        {
          "name": "",
          "type": "uint256"
        }
      ],
      "payable": false,
      "stateMutability": "view",
      "type": "function"
    },
    {
      "constant": true,
      "inputs": [
        {
          "name": "",
          "type": "uint256"
        }
      ],
      "name": "permits",
      "outputs": [
        {
          "name": "id",
          "type": "uint256"
        },
        {
          "name": "owner",
          "type": "address"
        },
        {
          "name": "propertyAddress",
          "type": "string"
        },
        {
          "name": "document",
          "type": "string"
        },
        {
          "name": "licenceNumber",
          "type": "string"
        },
        {
          "name": "status",
          "type": "uint8"
        }
      ],
      "payable": false,
      "stateMutability": "view",
      "type": "function"
    },
    {
      "constant": true,
      "inputs": [],
      "name": "loanCount",
      "outputs": [
        {
          "name": "",
          "type": "uint256"
        }
      ],
      "payable": false,
      "stateMutability": "view",
      "type": "function"
    },
    {
      "constant": true,
      "inputs": [
        {
          "name": "",
          "type": "uint256"
        }
      ],
      "name": "loans",
      "outputs": [
        {
          "name": "id",
          "type": "uint256"
        },
        {
          "name": "owner",
          "type": "address"
        },
        {
          "name": "fullName",
          "type": "string"
        },
        {
          "name": "annualIncome",
          "type": "string"
        },
        {
          "name": "applicationPropertyAddress",
          "type": "string"
        },
        {
          "name": "loanAmount",
          "type": "string"
        },
        {
          "name": "status",
          "type": "uint8"
        }
      ],
      "payable": false,
      "stateMutability": "view",
      "type": "function"
    },
    {
      "inputs": [],
      "payable": false,
      "stateMutability": "nonpayable",
      "type": "constructor"
    },
    {
      "anonymous": false,
      "inputs": [
        {
          "indexed": false,
          "name": "id",
          "type": "uint256"
        },
        {
          "indexed": false,
          "name": "owner",
          "type": "address"
        },
        {
          "indexed": false,
          "name": "propertyAddress",
          "type": "string"
        },
        {
          "indexed": false,
          "name": "document",
          "type": "string"
        },
        {
          "indexed": false,
          "name": "licenceNumber",
          "type": "string"
        },
        {
          "indexed": false,
          "name": "status",
          "type": "uint8"
        }
      ],
      "name": "PermitCreated",
      "type": "event"
    },
    {
      "anonymous": false,
      "inputs": [
        {
          "indexed": false,
          "name": "id",
          "type": "uint256"
        },
        {
          "indexed": false,
          "name": "status",
          "type": "uint8"
        },
        {
          "indexed": false,
          "name": "authBy",
          "type": "address"
        }
      ],
      "name": "PermitStatus",
      "type": "event"
    },
    {
      "anonymous": false,
      "inputs": [
        {
          "indexed": false,
          "name": "id",
          "type": "uint256"
        },
        {
          "indexed": false,
          "name": "owner",
          "type": "address"
        },
        {
          "indexed": false,
          "name": "fullName",
          "type": "string"
        },
        {
          "indexed": false,
          "name": "annualIncome",
          "type": "string"
        },
        {
          "indexed": false,
          "name": "applicationPropertyAddress",
          "type": "string"
        },
        {
          "indexed": false,
          "name": "loanAmount",
          "type": "string"
        },
        {
          "indexed": false,
          "name": "status",
          "type": "uint8"
        }
      ],
      "name": "LoanCreated",
      "type": "event"
    },
    {
      "anonymous": false,
      "inputs": [
        {
          "indexed": false,
          "name": "id",
          "type": "uint256"
        },
        {
          "indexed": false,
          "name": "status",
          "type": "uint8"
        },
        {
          "indexed": false,
          "name": "authBy",
          "type": "address"
        }
      ],
      "name": "LoanStatus",
      "type": "event"
    },
    {
      "constant": false,
      "inputs": [
        {
          "name": "_propertyAddress",
          "type": "string"
        },
        {
          "name": "_document",
          "type": "string"
        },
        {
          "name": "_licenceNumber",
          "type": "string"
        },
        {
          "name": "_status",
          "type": "uint8"
        }
      ],
      "name": "createPermit",
      "outputs": [],
      "payable": false,
      "stateMutability": "nonpayable",
      "type": "function"
    },
    {
      "constant": false,
      "inputs": [
        {
          "name": "_id",
          "type": "uint256"
        },
        {
          "name": "_status",
          "type": "uint8"
        }
      ],
      "name": "updatePermit",
      "outputs": [],
      "payable": false,
      "stateMutability": "nonpayable",
      "type": "function"
    },
    {
      "constant": false,
      "inputs": [
        {
          "name": "_fullName",
          "type": "string"
        },
        {
          "name": "_applicationProperyAddress",
          "type": "string"
        },
        {
          "name": "_annualIncome",
          "type": "string"
        },
        {
          "name": "_loanAmount",
          "type": "string"
        },
        {
          "name": "_status",
          "type": "uint8"
        }
      ],
      "name": "createLoanApplication",
      "outputs": [],
      "payable": false,
      "stateMutability": "nonpayable",
      "type": "function"
    },
    {
      "constant": false,
      "inputs": [
        {
          "name": "_id",
          "type": "uint256"
        },
        {
          "name": "_status",
          "type": "uint8"
        }
      ],
      "name": "updateLoanApplication",
      "outputs": [],
      "payable": false,
      "stateMutability": "nonpayable",
      "type": "function"
    }
  ],
  "bytecode": "0x6080604052600060015560006003553480156200001b57600080fd5b506040805190810160405280601c81526020017f53494349205265616c20457374617465204d61726b6574706c61636500000000815250600090805190602001906200006992919062000070565b506200011f565b828054600181600116156101000203166002900490600052602060002090601f016020900481019282601f10620000b357805160ff1916838001178555620000e4565b82800160010185558215620000e4579182015b82811115620000e3578251825591602001919060010190620000c6565b5b509050620000f39190620000f7565b5090565b6200011c91905b8082111562000118576000816000905550600101620000fe565b5090565b90565b6124ed806200012f6000396000f3fe608060405260043610610093576000357c01000000000000000000000000000000000000000000000000000000009004806306fdde03146100985780631ba69a2e1461012857806356ee4cd014610170578063670afd6b1461019b5780638521b6a4146101e3578063ce63094d146103be578063e1ec3c68146103e9578063ee9568b114610630578063fee42bda14610833575b600080fd5b3480156100a457600080fd5b506100ad610acd565b6040518080602001828103825283818151815260200191508051906020019080838360005b838110156100ed5780820151818401526020810190506100d2565b50505050905090810190601f16801561011a5780820380516001836020036101000a031916815260200191505b509250505060405180910390f35b34801561013457600080fd5b5061016e6004803603604081101561014b57600080fd5b8101908080359060200190929190803560ff169060200190929190505050610b6b565b005b34801561017c57600080fd5b50610185611157565b6040518082815260200191505060405180910390f35b3480156101a757600080fd5b506101e1600480360360408110156101be57600080fd5b8101908080359060200190929190803560ff16906020019092919050505061115d565b005b3480156101ef57600080fd5b5061021c6004803603602081101561020657600080fd5b810190808035906020019092919050505061168e565b604051808781526020018673ffffffffffffffffffffffffffffffffffffffff1673ffffffffffffffffffffffffffffffffffffffff16815260200180602001806020018060200185600381111561027057fe5b60ff168152602001848103845288818151815260200191508051906020019080838360005b838110156102b0578082015181840152602081019050610295565b50505050905090810190601f1680156102dd5780820380516001836020036101000a031916815260200191505b50848103835287818151815260200191508051906020019080838360005b838110156103165780820151818401526020810190506102fb565b50505050905090810190601f1680156103435780820380516001836020036101000a031916815260200191505b50848103825286818151815260200191508051906020019080838360005b8381101561037c578082015181840152602081019050610361565b50505050905090810190601f1680156103a95780820380516001836020036101000a031916815260200191505b50995050505050505050505060405180910390f35b3480156103ca57600080fd5b506103d36118bf565b6040518082815260200191505060405180910390f35b3480156103f557600080fd5b506104226004803603602081101561040c57600080fd5b81019080803590602001909291905050506118c5565b604051808881526020018773ffffffffffffffffffffffffffffffffffffffff1673ffffffffffffffffffffffffffffffffffffffff1681526020018060200180602001806020018060200186600381111561047a57fe5b60ff16815260200185810385528a818151815260200191508051906020019080838360005b838110156104ba57808201518184015260208101905061049f565b50505050905090810190601f1680156104e75780820380516001836020036101000a031916815260200191505b50858103845289818151815260200191508051906020019080838360005b83811015610520578082015181840152602081019050610505565b50505050905090810190601f16801561054d5780820380516001836020036101000a031916815260200191505b50858103835288818151815260200191508051906020019080838360005b8381101561058657808201518184015260208101905061056b565b50505050905090810190601f1680156105b35780820380516001836020036101000a031916815260200191505b50858103825287818151815260200191508051906020019080838360005b838110156105ec5780820151818401526020810190506105d1565b50505050905090810190601f1680156106195780820380516001836020036101000a031916815260200191505b509b50505050505050505050505060405180910390f35b34801561063c57600080fd5b506108316004803603608081101561065357600080fd5b810190808035906020019064010000000081111561067057600080fd5b82018360208201111561068257600080fd5b803590602001918460018302840111640100000000831117156106a457600080fd5b91908080601f016020809104026020016040519081016040528093929190818152602001838380828437600081840152601f19601f8201169050808301925050505050505091929192908035906020019064010000000081111561070757600080fd5b82018360208201111561071957600080fd5b8035906020019184600183028401116401000000008311171561073b57600080fd5b91908080601f016020809104026020016040519081016040528093929190818152602001838380828437600081840152601f19601f8201169050808301925050505050505091929192908035906020019064010000000081111561079e57600080fd5b8201836020820111156107b057600080fd5b803590602001918460018302840111640100000000831117156107d257600080fd5b91908080601f016020809104026020016040519081016040528093929190818152602001838380828437600081840152601f19601f820116905080830192505050505050509192919290803560ff169060200190929190505050611b94565b005b34801561083f57600080fd5b50610acb600480360360a081101561085657600080fd5b810190808035906020019064010000000081111561087357600080fd5b82018360208201111561088557600080fd5b803590602001918460018302840111640100000000831117156108a757600080fd5b91908080601f016020809104026020016040519081016040528093929190818152602001838380828437600081840152601f19601f8201169050808301925050505050505091929192908035906020019064010000000081111561090a57600080fd5b82018360208201111561091c57600080fd5b8035906020019184600183028401116401000000008311171561093e57600080fd5b91908080601f016020809104026020016040519081016040528093929190818152602001838380828437600081840152601f19601f820116905080830192505050505050509192919290803590602001906401000000008111156109a157600080fd5b8201836020820111156109b357600080fd5b803590602001918460018302840111640100000000831117156109d557600080fd5b91908080601f016020809104026020016040519081016040528093929190818152602001838380828437600081840152601f19601f82011690508083019250505050505050919291929080359060200190640100000000811115610a3857600080fd5b820183602082011115610a4a57600080fd5b80359060200191846001830284011164010000000083111715610a6c57600080fd5b91908080601f016020809104026020016040519081016040528093929190818152602001838380828437600081840152601f19601f820116905080830192505050505050509192919290803560ff169060200190929190505050611f53565b005b60008054600181600116156101000203166002900480601f016020809104026020016040519081016040528092919081815260200182805460018160011615610100020316600290048015610b635780601f10610b3857610100808354040283529160200191610b63565b820191906000526020600020905b815481529060010190602001808311610b4657829003601f168201915b505050505081565b610b73612365565b6004600084815260200190815260200160002060e06040519081016040529081600082015481526020016001820160009054906101000a900473ffffffffffffffffffffffffffffffffffffffff1673ffffffffffffffffffffffffffffffffffffffff1673ffffffffffffffffffffffffffffffffffffffff168152602001600282018054600181600116156101000203166002900480601f016020809104026020016040519081016040528092919081815260200182805460018160011615610100020316600290048015610c8b5780601f10610c6057610100808354040283529160200191610c8b565b820191906000526020600020905b815481529060010190602001808311610c6e57829003601f168201915b50505050508152602001600382018054600181600116156101000203166002900480601f016020809104026020016040519081016040528092919081815260200182805460018160011615610100020316600290048015610d2d5780601f10610d0257610100808354040283529160200191610d2d565b820191906000526020600020905b815481529060010190602001808311610d1057829003601f168201915b50505050508152602001600482018054600181600116156101000203166002900480601f016020809104026020016040519081016040528092919081815260200182805460018160011615610100020316600290048015610dcf5780601f10610da457610100808354040283529160200191610dcf565b820191906000526020600020905b815481529060010190602001808311610db257829003601f168201915b50505050508152602001600582018054600181600116156101000203166002900480601f016020809104026020016040519081016040528092919081815260200182805460018160011615610100020316600290048015610e715780601f10610e4657610100808354040283529160200191610e71565b820191906000526020600020905b815481529060010190602001808311610e5457829003601f168201915b505050505081526020016006820160009054906101000a900460ff166003811115610e9857fe5b6003811115610ea357fe5b81525050905060008160000151118015610ec35750600354816000015111155b1515610ece57600080fd5b816003811115610eda57fe5b8160c001516003811115610eea57fe5b14151515610ef757600080fd5b60006003811115610f0457fe5b826003811115610f1057fe5b14151515610f1d57600080fd5b3373ffffffffffffffffffffffffffffffffffffffff16816020015173ffffffffffffffffffffffffffffffffffffffff1614151515610f5c57600080fd5b73386c0b9c66a334ceedf0059b1b4e44e43c2821a673ffffffffffffffffffffffffffffffffffffffff163373ffffffffffffffffffffffffffffffffffffffff16141515610faa57600080fd5b818160c001906003811115610fbb57fe5b90816003811115610fc857fe5b8152505080600460008581526020019081526020016000206000820151816000015560208201518160010160006101000a81548173ffffffffffffffffffffffffffffffffffffffff021916908373ffffffffffffffffffffffffffffffffffffffff160217905550604082015181600201908051906020019061104d9291906123c4565b50606082015181600301908051906020019061106a9291906123c4565b5060808201518160040190805190602001906110879291906123c4565b5060a08201518160050190805190602001906110a49291906123c4565b5060c08201518160060160006101000a81548160ff021916908360038111156110c957fe5b02179055509050507f2fee9a8d5f0d02992eab704501ccf23112fbf6ecbba6603f3d65405984cec77a8383336040518084815260200183600381111561110b57fe5b60ff1681526020018273ffffffffffffffffffffffffffffffffffffffff1673ffffffffffffffffffffffffffffffffffffffff168152602001935050505060405180910390a1505050565b60015481565b611165612444565b6002600084815260200190815260200160002060c06040519081016040529081600082015481526020016001820160009054906101000a900473ffffffffffffffffffffffffffffffffffffffff1673ffffffffffffffffffffffffffffffffffffffff1673ffffffffffffffffffffffffffffffffffffffff168152602001600282018054600181600116156101000203166002900480601f01602080910402602001604051908101604052809291908181526020018280546001816001161561010002031660029004801561127d5780601f106112525761010080835404028352916020019161127d565b820191906000526020600020905b81548152906001019060200180831161126057829003601f168201915b50505050508152602001600382018054600181600116156101000203166002900480601f01602080910402602001604051908101604052809291908181526020018280546001816001161561010002031660029004801561131f5780601f106112f45761010080835404028352916020019161131f565b820191906000526020600020905b81548152906001019060200180831161130257829003601f168201915b50505050508152602001600482018054600181600116156101000203166002900480601f0160208091040260200160405190810160405280929190818152602001828054600181600116156101000203166002900480156113c15780601f10611396576101008083540402835291602001916113c1565b820191906000526020600020905b8154815290600101906020018083116113a457829003601f168201915b505050505081526020016005820160009054906101000a900460ff1660038111156113e857fe5b60038111156113f357fe5b815250509050600081600001511180156114135750600154816000015111155b151561141e57600080fd5b8060a00151600381111561142e57fe5b82600381111561143a57fe5b1415151561144757600080fd5b6000600381111561145457fe5b82600381111561146057fe5b1415151561146d57600080fd5b3373ffffffffffffffffffffffffffffffffffffffff16816020015173ffffffffffffffffffffffffffffffffffffffff16141515156114ac57600080fd5b73386c0b9c66a334ceedf0059b1b4e44e43c2821a673ffffffffffffffffffffffffffffffffffffffff163373ffffffffffffffffffffffffffffffffffffffff161415156114fa57600080fd5b818160a00190600381111561150b57fe5b9081600381111561151857fe5b8152505080600260008581526020019081526020016000206000820151816000015560208201518160010160006101000a81548173ffffffffffffffffffffffffffffffffffffffff021916908373ffffffffffffffffffffffffffffffffffffffff160217905550604082015181600201908051906020019061159d9291906123c4565b5060608201518160030190805190602001906115ba9291906123c4565b5060808201518160040190805190602001906115d79291906123c4565b5060a08201518160050160006101000a81548160ff021916908360038111156115fc57fe5b02179055509050507fa19f1ca9de769052f3612836f1164482191e0d4c01642a97cea205f8383eda74838260a00151336040518084815260200183600381111561164257fe5b60ff1681526020018273ffffffffffffffffffffffffffffffffffffffff1673ffffffffffffffffffffffffffffffffffffffff168152602001935050505060405180910390a1505050565b60026020528060005260406000206000915090508060000154908060010160009054906101000a900473ffffffffffffffffffffffffffffffffffffffff1690806002018054600181600116156101000203166002900480601f0160208091040260200160405190810160405280929190818152602001828054600181600116156101000203166002900480156117665780601f1061173b57610100808354040283529160200191611766565b820191906000526020600020905b81548152906001019060200180831161174957829003601f168201915b505050505090806003018054600181600116156101000203166002900480601f0160208091040260200160405190810160405280929190818152602001828054600181600116156101000203166002900480156118045780601f106117d957610100808354040283529160200191611804565b820191906000526020600020905b8154815290600101906020018083116117e757829003601f168201915b505050505090806004018054600181600116156101000203166002900480601f0160208091040260200160405190810160405280929190818152602001828054600181600116156101000203166002900480156118a25780601f10611877576101008083540402835291602001916118a2565b820191906000526020600020905b81548152906001019060200180831161188557829003601f168201915b5050505050908060050160009054906101000a900460ff16905086565b60035481565b60046020528060005260406000206000915090508060000154908060010160009054906101000a900473ffffffffffffffffffffffffffffffffffffffff1690806002018054600181600116156101000203166002900480601f01602080910402602001604051908101604052809291908181526020018280546001816001161561010002031660029004801561199d5780601f106119725761010080835404028352916020019161199d565b820191906000526020600020905b81548152906001019060200180831161198057829003601f168201915b505050505090806003018054600181600116156101000203166002900480601f016020809104026020016040519081016040528092919081815260200182805460018160011615610100020316600290048015611a3b5780601f10611a1057610100808354040283529160200191611a3b565b820191906000526020600020905b815481529060010190602001808311611a1e57829003601f168201915b505050505090806004018054600181600116156101000203166002900480601f016020809104026020016040519081016040528092919081815260200182805460018160011615610100020316600290048015611ad95780601f10611aae57610100808354040283529160200191611ad9565b820191906000526020600020905b815481529060010190602001808311611abc57829003601f168201915b505050505090806005018054600181600116156101000203166002900480601f016020809104026020016040519081016040528092919081815260200182805460018160011615610100020316600290048015611b775780601f10611b4c57610100808354040283529160200191611b77565b820191906000526020600020905b815481529060010190602001808311611b5a57829003601f168201915b5050505050908060060160009054906101000a900460ff16905087565b60008451111515611ba457600080fd5b60008351111515611bb457600080fd5b60008251111515611bc457600080fd5b60006003811115611bd157fe5b816003811115611bdd57fe5b141515611be957600080fd5b732e11ff485f0b543222e5cb392395f3ec748e37b873ffffffffffffffffffffffffffffffffffffffff163373ffffffffffffffffffffffffffffffffffffffff16141515611c3757600080fd5b60016000815480929190600101919050555060c06040519081016040528060015481526020013373ffffffffffffffffffffffffffffffffffffffff168152602001858152602001848152602001838152602001826003811115611c9757fe5b8152506002600060015481526020019081526020016000206000820151816000015560208201518160010160006101000a81548173ffffffffffffffffffffffffffffffffffffffff021916908373ffffffffffffffffffffffffffffffffffffffff1602179055506040820151816002019080519060200190611d1c9291906123c4565b506060820151816003019080519060200190611d399291906123c4565b506080820151816004019080519060200190611d569291906123c4565b5060a08201518160050160006101000a81548160ff02191690836003811115611d7b57fe5b02179055509050507f8b5b3c14b17390b209c169b886419a26bcf5f434edc6e56182834e2b8eb6835c6001543386868686604051808781526020018673ffffffffffffffffffffffffffffffffffffffff1673ffffffffffffffffffffffffffffffffffffffff168152602001806020018060200180602001856003811115611e0057fe5b60ff168152602001848103845288818151815260200191508051906020019080838360005b83811015611e40578082015181840152602081019050611e25565b50505050905090810190601f168015611e6d5780820380516001836020036101000a031916815260200191505b50848103835287818151815260200191508051906020019080838360005b83811015611ea6578082015181840152602081019050611e8b565b50505050905090810190601f168015611ed35780820380516001836020036101000a031916815260200191505b50848103825286818151815260200191508051906020019080838360005b83811015611f0c578082015181840152602081019050611ef1565b50505050905090810190601f168015611f395780820380516001836020036101000a031916815260200191505b50995050505050505050505060405180910390a150505050565b60008451111515611f6357600080fd5b60008551111515611f7357600080fd5b60008251111515611f8357600080fd5b60008351111515611f9357600080fd5b60006003811115611fa057fe5b816003811115611fac57fe5b141515611fb857600080fd5b60036000815480929190600101919050555060e06040519081016040528060035481526020013373ffffffffffffffffffffffffffffffffffffffff16815260200186815260200184815260200185815260200183815260200182600381111561201e57fe5b8152506004600060035481526020019081526020016000206000820151816000015560208201518160010160006101000a81548173ffffffffffffffffffffffffffffffffffffffff021916908373ffffffffffffffffffffffffffffffffffffffff16021790555060408201518160020190805190602001906120a39291906123c4565b5060608201518160030190805190602001906120c09291906123c4565b5060808201518160040190805190602001906120dd9291906123c4565b5060a08201518160050190805190602001906120fa9291906123c4565b5060c08201518160060160006101000a81548160ff0219169083600381111561211f57fe5b02179055509050507ffbf4345c536348924904ad56816b8758c94baf4d5c18e6bdb32c324284af9b73600354338786888787604051808881526020018773ffffffffffffffffffffffffffffffffffffffff1673ffffffffffffffffffffffffffffffffffffffff168152602001806020018060200180602001806020018660038111156121a957fe5b60ff16815260200185810385528a818151815260200191508051906020019080838360005b838110156121e95780820151818401526020810190506121ce565b50505050905090810190601f1680156122165780820380516001836020036101000a031916815260200191505b50858103845289818151815260200191508051906020019080838360005b8381101561224f578082015181840152602081019050612234565b50505050905090810190601f16801561227c5780820380516001836020036101000a031916815260200191505b50858103835288818151815260200191508051906020019080838360005b838110156122b557808201518184015260208101905061229a565b50505050905090810190601f1680156122e25780820380516001836020036101000a031916815260200191505b50858103825287818151815260200191508051906020019080838360005b8381101561231b578082015181840152602081019050612300565b50505050905090810190601f1680156123485780820380516001836020036101000a031916815260200191505b509b50505050505050505050505060405180910390a15050505050565b60e06040519081016040528060008152602001600073ffffffffffffffffffffffffffffffffffffffff16815260200160608152602001606081526020016060815260200160608152602001600060038111156123be57fe5b81525090565b828054600181600116156101000203166002900490600052602060002090601f016020900481019282601f1061240557805160ff1916838001178555612433565b82800160010185558215612433579182015b82811115612432578251825591602001919060010190612417565b5b509050612440919061249c565b5090565b60c06040519081016040528060008152602001600073ffffffffffffffffffffffffffffffffffffffff1681526020016060815260200160608152602001606081526020016000600381111561249657fe5b81525090565b6124be91905b808211156124ba5760008160009055506001016124a2565b5090565b9056fea165627a7a723058208233df90d61ce18be1b35de09670580824aff41f3a2a73e857fe09fb8a42db030029",
  "source": "pragma solidity >0.5.0;\n\ncontract Marketplace {\n    string public name;\n    // string public Authority;\n    // string public Seller;\n\n    uint public permitCount = 0;\n    mapping(uint => PermitApplication) public permits;\n\n    uint public loanCount = 0;\n    mapping(uint => LoanApplication) public loans;\n\n    // TODO - create the banking side of contracts - loanApplications etc\n\n    // mapping(address => Account) public accounts;\n\n    // enum to control the states of applications rather than multiple booleans\n    enum applicationStatus {\n        applied,\n        approved,\n        denied,\n        purchased\n    }\n    applicationStatus constant default_value = applicationStatus.applied;\n\n    enum accountType {\n        deployer,\n        seller,\n        authority,\n        buyer,\n        bank\n    }\n\n    struct Account {\n        address accountAddress;\n        accountType account;\n    }\n\n    // TODO find a way for this to take a document - buffer maybe?\n    struct PermitApplication {\n        uint id;\n        address owner;\n        string propertyAddress;\n        string document;\n        string licenceNumber;\n        applicationStatus status; \n    }\n\n    event PermitCreated(\n        uint id,\n        address owner,\n        string propertyAddress,\n        string document,\n        string licenceNumber,\n        applicationStatus status\n        );\n\n    event PermitStatus(\n        uint id,\n        applicationStatus status,\n        address authBy\n    );\n        \n        // original struct - too many variables for this version of truffle\n    // struct LoanApplication {\n    //     uint id;\n    //     address owner;\n    //     string fullName;\n    //     uint256 birthdate;\n    //     string currentAddress;\n    //     string contactNumber;\n    //     string employerName;\n    //     string annualIncome;\n    //     string applicationProperyAddress;\n    //     string loanAmount;\n    //     applicationStatus status;\n    // }\n    struct LoanApplication {\n        uint id;\n        address owner;\n        string fullName;\n        string annualIncome;\n        string applicationPropertyAddress;\n        string loanAmount;\n        applicationStatus status;\n    }\n\n\n    event LoanCreated(\n        uint id,\n        address owner,\n        string fullName,\n        string annualIncome,\n        string applicationPropertyAddress,\n        string loanAmount,\n        applicationStatus status\n    );\n    \n    event LoanStatus(\n        uint id,\n        applicationStatus status,\n        address authBy\n    );\n\n\n    constructor() public {\n        name = \"SICI Real Estate Marketplace\";\n    }\n\n\n    function createPermit(string memory _propertyAddress, string memory _document, string memory _licenceNumber, applicationStatus _status) public {\n        // requires strings to not be empty\n        require(bytes(_propertyAddress).length > 0);\n        require(bytes(_document).length > 0);\n        require(bytes(_licenceNumber).length > 0);\n        // status of a new application must be applied ONLY\n        require(_status == applicationStatus.applied);\n        // only be created by a seller TODO find better implementation of this\n        require(msg.sender == 0x2E11fF485F0B543222e5cb392395f3ec748E37B8);\n\n        permitCount++;\n        permits[permitCount] = PermitApplication(permitCount, msg.sender, _propertyAddress, _document, _licenceNumber, _status);\n\n        emit PermitCreated(permitCount, msg.sender, _propertyAddress, _document, _licenceNumber, _status);\n    }\n\n    /**\n    * Changes the permits status\n    * @param _id permit ID\n    * @param _status status that is being applied to the permit\n     */\n    function updatePermit(uint _id, applicationStatus _status) public {\n        // fetch permit\n        PermitApplication memory _permit = permits[_id];\n        // validate permit exists\n        require(_permit.id > 0 && _permit.id <= permitCount);\n        // validate that the status is not the same - NOT SURE THIS WORKS CORRECTLY\n        require(_status != _permit.status);\n        // validate that it is not being updated back to applied\n        require(_status != applicationStatus.applied);\n\n        // TODO find better implementation of auth checking - look into proof of authority if we can\n        // seller can not update their own permit\n        require(_permit.owner != msg.sender);\n        // only be updated by an authority \n        require(msg.sender == 0x386c0b9C66a334cEedf0059b1B4E44E43C2821a6);\n\n\n        // update permit\n        _permit.status = _status;\n        permits[_id] = _permit;\n        // trigger event\n        emit PermitStatus(_id, _permit.status, msg.sender);\n    }\n\n    function createLoanApplication(\n        string memory _fullName,\n        string memory _applicationProperyAddress, \n        string memory _annualIncome,\n        string memory _loanAmount, \n        applicationStatus _status) public {\n            \n            require(bytes(_applicationProperyAddress).length > 0);\n            require(bytes(_fullName).length > 0);\n            require(bytes(_loanAmount).length > 0);\n            require(bytes(_annualIncome).length > 0);\n            require(_status == applicationStatus.applied);\n\n            loanCount++;\n\n            loans[loanCount] = LoanApplication(loanCount, msg.sender, _fullName, _annualIncome, _applicationProperyAddress, _loanAmount, _status);\n            emit LoanCreated(loanCount, msg.sender, _fullName, _annualIncome, _applicationProperyAddress, _loanAmount, _status);\n    }\n\n    function updateLoanApplication(uint _id, applicationStatus _status) public {\n        LoanApplication memory _loan = loans[_id];\n        \n        // validate permit exists\n        require(_loan.id > 0 && _loan.id <= loanCount);\n        // validate that the status is not the same\n        require(_loan.status != _status);\n        require(_status != applicationStatus.applied);\n\n        require(_loan.owner != msg.sender);\n        require(msg.sender == 0x386c0b9C66a334cEedf0059b1B4E44E43C2821a6);\n        \n        _loan.status = _status;\n        loans[_id] = _loan;\n        emit LoanStatus(_id, _status, msg.sender);\n    }\n\n}",
  "sourcePath": "/home/noob/Desktop/uni/sici/latest/sici-blockchain/src/contracts/Marketplace.sol",
  "compiler": {
    "name": "solc",
    "version": "0.5.1+commit.c8a2cb62.Emscripten.clang"
  },
  "schemaVersion": "3.4.1",
  "updatedAt": "2021-06-04T10:03:00.199Z",
  "devdoc": {
    "methods": {
      "updatePermit(uint256,uint8)": {
        "params": {
          "_id": "permit ID",
          "_status": "status that is being applied to the permit"
        }
      }
    }
  },
  "userdoc": {
    "methods": {
      "updatePermit(uint256,uint8)": {
        "notice": "Changes the permits status"
      }
    }
  }
}