{
  "contractName": "Marketplace",
  "abi": [
    {
      "constant": true,
      "inputs": [],
      "name": "name",
      "outputs": [
        {
          "name": "",
          "type": "string"
        }
      ],
      "payable": false,
      "stateMutability": "view",
      "type": "function"
    },
    {
      "constant": true,
      "inputs": [],
      "name": "seller",
      "outputs": [
        {
          "name": "",
          "type": "address"
        }
      ],
      "payable": false,
      "stateMutability": "view",
      "type": "function"
    },
    {
      "constant": true,
      "inputs": [],
      "name": "permitCount",
      "outputs": [
        {
          "name": "",
          "type": "uint256"
        }
      ],
      "payable": false,
      "stateMutability": "view",
      "type": "function"
    },
    {
      "constant": true,
      "inputs": [],
      "name": "buyer",
      "outputs": [
        {
          "name": "",
          "type": "address"
        }
      ],
      "payable": false,
      "stateMutability": "view",
      "type": "function"
    },
    {
      "constant": true,
      "inputs": [],
      "name": "bank",
      "outputs": [
        {
          "name": "",
          "type": "address"
        }
      ],
      "payable": false,
      "stateMutability": "view",
      "type": "function"
    },
    {
      "constant": true,
      "inputs": [
        {
          "name": "",
          "type": "uint256"
        }
      ],
      "name": "permits",
      "outputs": [
        {
          "name": "id",
          "type": "uint256"
        },
        {
          "name": "owner",
          "type": "address"
        },
        {
          "name": "propertyAddress",
          "type": "string"
        },
        {
          "name": "document",
          "type": "string"
        },
        {
          "name": "licenceNumber",
          "type": "string"
        },
        {
          "name": "status",
          "type": "uint8"
        }
      ],
      "payable": false,
      "stateMutability": "view",
      "type": "function"
    },
    {
      "constant": true,
      "inputs": [],
      "name": "authority",
      "outputs": [
        {
          "name": "",
          "type": "address"
        }
      ],
      "payable": false,
      "stateMutability": "view",
      "type": "function"
    },
    {
      "constant": true,
      "inputs": [],
      "name": "loanCount",
      "outputs": [
        {
          "name": "",
          "type": "uint256"
        }
      ],
      "payable": false,
      "stateMutability": "view",
      "type": "function"
    },
    {
      "constant": true,
      "inputs": [
        {
          "name": "",
          "type": "uint256"
        }
      ],
      "name": "loans",
      "outputs": [
        {
          "name": "id",
          "type": "uint256"
        },
        {
          "name": "owner",
          "type": "address"
        },
        {
          "name": "fullName",
          "type": "string"
        },
        {
          "name": "annualIncome",
          "type": "uint256"
        },
        {
          "name": "propertyAddress",
          "type": "string"
        },
        {
          "name": "loanAmount",
          "type": "uint256"
        },
        {
          "name": "status",
          "type": "uint8"
        }
      ],
      "payable": false,
      "stateMutability": "view",
      "type": "function"
    },
    {
      "inputs": [],
      "payable": false,
      "stateMutability": "nonpayable",
      "type": "constructor"
    },
    {
      "anonymous": false,
      "inputs": [
        {
          "indexed": false,
          "name": "id",
          "type": "uint256"
        },
        {
          "indexed": false,
          "name": "owner",
          "type": "address"
        },
        {
          "indexed": false,
          "name": "propertyAddress",
          "type": "string"
        },
        {
          "indexed": false,
          "name": "document",
          "type": "string"
        },
        {
          "indexed": false,
          "name": "licenceNumber",
          "type": "string"
        },
        {
          "indexed": false,
          "name": "status",
          "type": "uint8"
        }
      ],
      "name": "PermitCreated",
      "type": "event"
    },
    {
      "anonymous": false,
      "inputs": [
        {
          "indexed": false,
          "name": "id",
          "type": "uint256"
        },
        {
          "indexed": false,
          "name": "owner",
          "type": "address"
        },
        {
          "indexed": false,
          "name": "fullName",
          "type": "string"
        },
        {
          "indexed": false,
          "name": "annualIncome",
          "type": "uint256"
        },
        {
          "indexed": false,
          "name": "propertyAddress",
          "type": "string"
        },
        {
          "indexed": false,
          "name": "loanAmount",
          "type": "uint256"
        },
        {
          "indexed": false,
          "name": "status",
          "type": "uint8"
        }
      ],
      "name": "LoanCreated",
      "type": "event"
    },
    {
      "anonymous": false,
      "inputs": [
        {
          "indexed": false,
          "name": "id",
          "type": "uint256"
        },
        {
          "indexed": false,
          "name": "status",
          "type": "uint8"
        },
        {
          "indexed": false,
          "name": "authBy",
          "type": "address"
        }
      ],
      "name": "PermitStatus",
      "type": "event"
    },
    {
      "anonymous": false,
      "inputs": [
        {
          "indexed": false,
          "name": "id",
          "type": "uint256"
        },
        {
          "indexed": false,
          "name": "status",
          "type": "uint8"
        },
        {
          "indexed": false,
          "name": "authBy",
          "type": "address"
        }
      ],
      "name": "LoanStatus",
      "type": "event"
    },
    {
      "constant": false,
      "inputs": [
        {
          "name": "_propertyAddress",
          "type": "string"
        },
        {
          "name": "_document",
          "type": "string"
        },
        {
          "name": "_licenceNumber",
          "type": "string"
        },
        {
          "name": "_status",
          "type": "uint8"
        }
      ],
      "name": "createPermit",
      "outputs": [],
      "payable": false,
      "stateMutability": "nonpayable",
      "type": "function"
    },
    {
      "constant": false,
      "inputs": [
        {
          "name": "_id",
          "type": "uint256"
        },
        {
          "name": "_status",
          "type": "uint8"
        }
      ],
      "name": "updatePermit",
      "outputs": [],
      "payable": false,
      "stateMutability": "nonpayable",
      "type": "function"
    },
    {
      "constant": false,
      "inputs": [
        {
          "name": "_fullName",
          "type": "string"
        },
        {
          "name": "_annualIncome",
          "type": "uint256"
        },
        {
          "name": "_propertyAddress",
          "type": "string"
        },
        {
          "name": "_loanAmount",
          "type": "uint256"
        },
        {
          "name": "_status",
          "type": "uint8"
        }
      ],
      "name": "createLoan",
      "outputs": [],
      "payable": false,
      "stateMutability": "nonpayable",
      "type": "function"
    },
    {
      "constant": false,
      "inputs": [
        {
          "name": "_id",
          "type": "uint256"
        },
        {
          "name": "_status",
          "type": "uint8"
        }
      ],
      "name": "updateLoan",
      "outputs": [],
      "payable": false,
      "stateMutability": "nonpayable",
      "type": "function"
    }
  ],
  "bytecode": "0x6080604052600060055560006007553480156200001b57600080fd5b506040805190810160405280601c81526020017f53494349205265616c20457374617465204d61726b6574706c616365000000008152506000908051906020019062000069929190620001c4565b50737e14e1b59af858c2e366b1d902abbb743275f694600160006101000a81548173ffffffffffffffffffffffffffffffffffffffff021916908373ffffffffffffffffffffffffffffffffffffffff160217905550732b0d61c05d8caff492e1d6a6d3451437801d4b6b600260006101000a81548173ffffffffffffffffffffffffffffffffffffffff021916908373ffffffffffffffffffffffffffffffffffffffff16021790555073457e9ddff1409434d618461a2f5f15586fb0eb6c600360006101000a81548173ffffffffffffffffffffffffffffffffffffffff021916908373ffffffffffffffffffffffffffffffffffffffff16021790555073fd55579f56578959d269f87d9eab9a97a09877f8600460006101000a81548173ffffffffffffffffffffffffffffffffffffffff021916908373ffffffffffffffffffffffffffffffffffffffff16021790555062000273565b828054600181600116156101000203166002900490600052602060002090601f016020900481019282601f106200020757805160ff191683800117855562000238565b8280016001018555821562000238579182015b82811115620002375782518255916020019190600101906200021a565b5b5090506200024791906200024b565b5090565b6200027091905b808211156200026c57600081600090555060010162000252565b5090565b90565b61223b80620002836000396000f3fe6080604052600436106100bf576000357c01000000000000000000000000000000000000000000000000000000009004806306fdde03146100c457806308551a53146101545780632e9cc10c146101ab57806356ee4cd01461032b578063670afd6b146103565780636fe8de081461039e5780637150d8ae146103e657806376cdb03b1461043d5780638521b6a414610494578063bf7e214f1461066f578063ce63094d146106c6578063e1ec3c68146106f1578063ee9568b11461086e575b600080fd5b3480156100d057600080fd5b506100d9610a71565b6040518080602001828103825283818151815260200191508051906020019080838360005b838110156101195780820151818401526020810190506100fe565b50505050905090810190601f1680156101465780820380516001836020036101000a031916815260200191505b509250505060405180910390f35b34801561016057600080fd5b50610169610b0f565b604051808273ffffffffffffffffffffffffffffffffffffffff1673ffffffffffffffffffffffffffffffffffffffff16815260200191505060405180910390f35b3480156101b757600080fd5b50610329600480360360a08110156101ce57600080fd5b81019080803590602001906401000000008111156101eb57600080fd5b8201836020820111156101fd57600080fd5b8035906020019184600183028401116401000000008311171561021f57600080fd5b91908080601f016020809104026020016040519081016040528093929190818152602001838380828437600081840152601f19601f820116905080830192505050505050509192919290803590602001909291908035906020019064010000000081111561028c57600080fd5b82018360208201111561029e57600080fd5b803590602001918460018302840111640100000000831117156102c057600080fd5b91908080601f016020809104026020016040519081016040528093929190818152602001838380828437600081840152601f19601f82011690508083019250505050505050919291929080359060200190929190803560ff169060200190929190505050610b35565b005b34801561033757600080fd5b50610340610eb1565b6040518082815260200191505060405180910390f35b34801561036257600080fd5b5061039c6004803603604081101561037957600080fd5b8101908080359060200190929190803560ff169060200190929190505050610eb7565b005b3480156103aa57600080fd5b506103e4600480360360408110156103c157600080fd5b8101908080359060200190929190803560ff1690602001909291905050506113f6565b005b3480156103f257600080fd5b506103fb61189e565b604051808273ffffffffffffffffffffffffffffffffffffffff1673ffffffffffffffffffffffffffffffffffffffff16815260200191505060405180910390f35b34801561044957600080fd5b506104526118c4565b604051808273ffffffffffffffffffffffffffffffffffffffff1673ffffffffffffffffffffffffffffffffffffffff16815260200191505060405180910390f35b3480156104a057600080fd5b506104cd600480360360208110156104b757600080fd5b81019080803590602001909291905050506118ea565b604051808781526020018673ffffffffffffffffffffffffffffffffffffffff1673ffffffffffffffffffffffffffffffffffffffff16815260200180602001806020018060200185600381111561052157fe5b60ff168152602001848103845288818151815260200191508051906020019080838360005b83811015610561578082015181840152602081019050610546565b50505050905090810190601f16801561058e5780820380516001836020036101000a031916815260200191505b50848103835287818151815260200191508051906020019080838360005b838110156105c75780820151818401526020810190506105ac565b50505050905090810190601f1680156105f45780820380516001836020036101000a031916815260200191505b50848103825286818151815260200191508051906020019080838360005b8381101561062d578082015181840152602081019050610612565b50505050905090810190601f16801561065a5780820380516001836020036101000a031916815260200191505b50995050505050505050505060405180910390f35b34801561067b57600080fd5b50610684611b1b565b604051808273ffffffffffffffffffffffffffffffffffffffff1673ffffffffffffffffffffffffffffffffffffffff16815260200191505060405180910390f35b3480156106d257600080fd5b506106db611b41565b6040518082815260200191505060405180910390f35b3480156106fd57600080fd5b5061072a6004803603602081101561071457600080fd5b8101908080359060200190929190505050611b47565b604051808881526020018773ffffffffffffffffffffffffffffffffffffffff1673ffffffffffffffffffffffffffffffffffffffff168152602001806020018681526020018060200185815260200184600381111561078657fe5b60ff168152602001838103835288818151815260200191508051906020019080838360005b838110156107c65780820151818401526020810190506107ab565b50505050905090810190601f1680156107f35780820380516001836020036101000a031916815260200191505b50838103825286818151815260200191508051906020019080838360005b8381101561082c578082015181840152602081019050610811565b50505050905090810190601f1680156108595780820380516001836020036101000a031916815260200191505b50995050505050505050505060405180910390f35b34801561087a57600080fd5b50610a6f6004803603608081101561089157600080fd5b81019080803590602001906401000000008111156108ae57600080fd5b8201836020820111156108c057600080fd5b803590602001918460018302840111640100000000831117156108e257600080fd5b91908080601f016020809104026020016040519081016040528093929190818152602001838380828437600081840152601f19601f8201169050808301925050505050505091929192908035906020019064010000000081111561094557600080fd5b82018360208201111561095757600080fd5b8035906020019184600183028401116401000000008311171561097957600080fd5b91908080601f016020809104026020016040519081016040528093929190818152602001838380828437600081840152601f19601f820116905080830192505050505050509192919290803590602001906401000000008111156109dc57600080fd5b8201836020820111156109ee57600080fd5b80359060200191846001830284011164010000000083111715610a1057600080fd5b91908080601f016020809104026020016040519081016040528093929190818152602001838380828437600081840152601f19601f820116905080830192505050505050509192919290803560ff169060200190929190505050611ce6565b005b60008054600181600116156101000203166002900480601f016020809104026020016040519081016040528092919081815260200182805460018160011615610100020316600290048015610b075780601f10610adc57610100808354040283529160200191610b07565b820191906000526020600020905b815481529060010190602001808311610aea57829003601f168201915b505050505081565b600160009054906101000a900473ffffffffffffffffffffffffffffffffffffffff1681565b60008551111515610b4557600080fd5b60008351111515610b5557600080fd5b600084111515610b6457600080fd5b600082111515610b7357600080fd5b60006003811115610b8057fe5b816003811115610b8c57fe5b141515610b9857600080fd5b600360009054906101000a900473ffffffffffffffffffffffffffffffffffffffff1673ffffffffffffffffffffffffffffffffffffffff163373ffffffffffffffffffffffffffffffffffffffff16141515610bf457600080fd5b60076000815480929190600101919050555060e06040519081016040528060075481526020013373ffffffffffffffffffffffffffffffffffffffff168152602001868152602001858152602001848152602001838152602001826003811115610c5a57fe5b8152506008600060075481526020019081526020016000206000820151816000015560208201518160010160006101000a81548173ffffffffffffffffffffffffffffffffffffffff021916908373ffffffffffffffffffffffffffffffffffffffff1602179055506040820151816002019080519060200190610cdf9291906120b3565b50606082015181600301556080820151816004019080519060200190610d069291906120b3565b5060a0820151816005015560c08201518160060160006101000a81548160ff02191690836003811115610d3557fe5b02179055509050507fd38c0175da9c42e1423249a044166c0be47fe5fbda6df63d08d95f605e67359b600554338787878787604051808881526020018773ffffffffffffffffffffffffffffffffffffffff1673ffffffffffffffffffffffffffffffffffffffff1681526020018060200186815260200180602001858152602001846003811115610dc357fe5b60ff168152602001838103835288818151815260200191508051906020019080838360005b83811015610e03578082015181840152602081019050610de8565b50505050905090810190601f168015610e305780820380516001836020036101000a031916815260200191505b50838103825286818151815260200191508051906020019080838360005b83811015610e69578082015181840152602081019050610e4e565b50505050905090810190601f168015610e965780820380516001836020036101000a031916815260200191505b50995050505050505050505060405180910390a15050505050565b60055481565b610ebf612133565b6006600084815260200190815260200160002060c06040519081016040529081600082015481526020016001820160009054906101000a900473ffffffffffffffffffffffffffffffffffffffff1673ffffffffffffffffffffffffffffffffffffffff1673ffffffffffffffffffffffffffffffffffffffff168152602001600282018054600181600116156101000203166002900480601f016020809104026020016040519081016040528092919081815260200182805460018160011615610100020316600290048015610fd75780601f10610fac57610100808354040283529160200191610fd7565b820191906000526020600020905b815481529060010190602001808311610fba57829003601f168201915b50505050508152602001600382018054600181600116156101000203166002900480601f0160208091040260200160405190810160405280929190818152602001828054600181600116156101000203166002900480156110795780601f1061104e57610100808354040283529160200191611079565b820191906000526020600020905b81548152906001019060200180831161105c57829003601f168201915b50505050508152602001600482018054600181600116156101000203166002900480601f01602080910402602001604051908101604052809291908181526020018280546001816001161561010002031660029004801561111b5780601f106110f05761010080835404028352916020019161111b565b820191906000526020600020905b8154815290600101906020018083116110fe57829003601f168201915b505050505081526020016005820160009054906101000a900460ff16600381111561114257fe5b600381111561114d57fe5b8152505090506000816000015111801561116d5750600554816000015111155b151561117857600080fd5b8060a00151600381111561118857fe5b82600381111561119457fe5b141515156111a157600080fd5b600060038111156111ae57fe5b8260038111156111ba57fe5b141515156111c757600080fd5b3373ffffffffffffffffffffffffffffffffffffffff16816020015173ffffffffffffffffffffffffffffffffffffffff161415151561120657600080fd5b600260009054906101000a900473ffffffffffffffffffffffffffffffffffffffff1673ffffffffffffffffffffffffffffffffffffffff163373ffffffffffffffffffffffffffffffffffffffff1614151561126257600080fd5b818160a00190600381111561127357fe5b9081600381111561128057fe5b8152505080600660008581526020019081526020016000206000820151816000015560208201518160010160006101000a81548173ffffffffffffffffffffffffffffffffffffffff021916908373ffffffffffffffffffffffffffffffffffffffff16021790555060408201518160020190805190602001906113059291906120b3565b5060608201518160030190805190602001906113229291906120b3565b50608082015181600401908051906020019061133f9291906120b3565b5060a08201518160050160006101000a81548160ff0219169083600381111561136457fe5b02179055509050507fa19f1ca9de769052f3612836f1164482191e0d4c01642a97cea205f8383eda74838260a0015133604051808481526020018360038111156113aa57fe5b60ff1681526020018273ffffffffffffffffffffffffffffffffffffffff1673ffffffffffffffffffffffffffffffffffffffff168152602001935050505060405180910390a1505050565b6113fe61218b565b6008600084815260200190815260200160002060e06040519081016040529081600082015481526020016001820160009054906101000a900473ffffffffffffffffffffffffffffffffffffffff1673ffffffffffffffffffffffffffffffffffffffff1673ffffffffffffffffffffffffffffffffffffffff168152602001600282018054600181600116156101000203166002900480601f0160208091040260200160405190810160405280929190818152602001828054600181600116156101000203166002900480156115165780601f106114eb57610100808354040283529160200191611516565b820191906000526020600020905b8154815290600101906020018083116114f957829003601f168201915b5050505050815260200160038201548152602001600482018054600181600116156101000203166002900480601f0160208091040260200160405190810160405280929190818152602001828054600181600116156101000203166002900480156115c25780601f10611597576101008083540402835291602001916115c2565b820191906000526020600020905b8154815290600101906020018083116115a557829003601f168201915b50505050508152602001600582015481526020016006820160009054906101000a900460ff1660038111156115f357fe5b60038111156115fe57fe5b8152505090506000816000015111801561161e5750600754816000015111155b151561162957600080fd5b8060c00151600381111561163957fe5b82600381111561164557fe5b1415151561165257600080fd5b6000600381111561165f57fe5b82600381111561166b57fe5b1415151561167857600080fd5b3373ffffffffffffffffffffffffffffffffffffffff16816020015173ffffffffffffffffffffffffffffffffffffffff16141515156116b757600080fd5b600460009054906101000a900473ffffffffffffffffffffffffffffffffffffffff1673ffffffffffffffffffffffffffffffffffffffff163373ffffffffffffffffffffffffffffffffffffffff1614151561171357600080fd5b818160c00190600381111561172457fe5b9081600381111561173157fe5b8152505080600860008581526020019081526020016000206000820151816000015560208201518160010160006101000a81548173ffffffffffffffffffffffffffffffffffffffff021916908373ffffffffffffffffffffffffffffffffffffffff16021790555060408201518160020190805190602001906117b69291906120b3565b506060820151816003015560808201518160040190805190602001906117dd9291906120b3565b5060a0820151816005015560c08201518160060160006101000a81548160ff0219169083600381111561180c57fe5b02179055509050507f2fee9a8d5f0d02992eab704501ccf23112fbf6ecbba6603f3d65405984cec77a838260c00151336040518084815260200183600381111561185257fe5b60ff1681526020018273ffffffffffffffffffffffffffffffffffffffff1673ffffffffffffffffffffffffffffffffffffffff168152602001935050505060405180910390a1505050565b600360009054906101000a900473ffffffffffffffffffffffffffffffffffffffff1681565b600460009054906101000a900473ffffffffffffffffffffffffffffffffffffffff1681565b60066020528060005260406000206000915090508060000154908060010160009054906101000a900473ffffffffffffffffffffffffffffffffffffffff1690806002018054600181600116156101000203166002900480601f0160208091040260200160405190810160405280929190818152602001828054600181600116156101000203166002900480156119c25780601f10611997576101008083540402835291602001916119c2565b820191906000526020600020905b8154815290600101906020018083116119a557829003601f168201915b505050505090806003018054600181600116156101000203166002900480601f016020809104026020016040519081016040528092919081815260200182805460018160011615610100020316600290048015611a605780601f10611a3557610100808354040283529160200191611a60565b820191906000526020600020905b815481529060010190602001808311611a4357829003601f168201915b505050505090806004018054600181600116156101000203166002900480601f016020809104026020016040519081016040528092919081815260200182805460018160011615610100020316600290048015611afe5780601f10611ad357610100808354040283529160200191611afe565b820191906000526020600020905b815481529060010190602001808311611ae157829003601f168201915b5050505050908060050160009054906101000a900460ff16905086565b600260009054906101000a900473ffffffffffffffffffffffffffffffffffffffff1681565b60075481565b60086020528060005260406000206000915090508060000154908060010160009054906101000a900473ffffffffffffffffffffffffffffffffffffffff1690806002018054600181600116156101000203166002900480601f016020809104026020016040519081016040528092919081815260200182805460018160011615610100020316600290048015611c1f5780601f10611bf457610100808354040283529160200191611c1f565b820191906000526020600020905b815481529060010190602001808311611c0257829003601f168201915b505050505090806003015490806004018054600181600116156101000203166002900480601f016020809104026020016040519081016040528092919081815260200182805460018160011615610100020316600290048015611cc35780601f10611c9857610100808354040283529160200191611cc3565b820191906000526020600020905b815481529060010190602001808311611ca657829003601f168201915b5050505050908060050154908060060160009054906101000a900460ff16905087565b60008451111515611cf657600080fd5b60008351111515611d0657600080fd5b60008251111515611d1657600080fd5b60006003811115611d2357fe5b816003811115611d2f57fe5b141515611d3b57600080fd5b600160009054906101000a900473ffffffffffffffffffffffffffffffffffffffff1673ffffffffffffffffffffffffffffffffffffffff163373ffffffffffffffffffffffffffffffffffffffff16141515611d9757600080fd5b60056000815480929190600101919050555060c06040519081016040528060055481526020013373ffffffffffffffffffffffffffffffffffffffff168152602001858152602001848152602001838152602001826003811115611df757fe5b8152506006600060055481526020019081526020016000206000820151816000015560208201518160010160006101000a81548173ffffffffffffffffffffffffffffffffffffffff021916908373ffffffffffffffffffffffffffffffffffffffff1602179055506040820151816002019080519060200190611e7c9291906120b3565b506060820151816003019080519060200190611e999291906120b3565b506080820151816004019080519060200190611eb69291906120b3565b5060a08201518160050160006101000a81548160ff02191690836003811115611edb57fe5b02179055509050507f8b5b3c14b17390b209c169b886419a26bcf5f434edc6e56182834e2b8eb6835c6005543386868686604051808781526020018673ffffffffffffffffffffffffffffffffffffffff1673ffffffffffffffffffffffffffffffffffffffff168152602001806020018060200180602001856003811115611f6057fe5b60ff168152602001848103845288818151815260200191508051906020019080838360005b83811015611fa0578082015181840152602081019050611f85565b50505050905090810190601f168015611fcd5780820380516001836020036101000a031916815260200191505b50848103835287818151815260200191508051906020019080838360005b83811015612006578082015181840152602081019050611feb565b50505050905090810190601f1680156120335780820380516001836020036101000a031916815260200191505b50848103825286818151815260200191508051906020019080838360005b8381101561206c578082015181840152602081019050612051565b50505050905090810190601f1680156120995780820380516001836020036101000a031916815260200191505b50995050505050505050505060405180910390a150505050565b828054600181600116156101000203166002900490600052602060002090601f016020900481019282601f106120f457805160ff1916838001178555612122565b82800160010185558215612122579182015b82811115612121578251825591602001919060010190612106565b5b50905061212f91906121ea565b5090565b60c06040519081016040528060008152602001600073ffffffffffffffffffffffffffffffffffffffff1681526020016060815260200160608152602001606081526020016000600381111561218557fe5b81525090565b60e06040519081016040528060008152602001600073ffffffffffffffffffffffffffffffffffffffff16815260200160608152602001600081526020016060815260200160008152602001600060038111156121e457fe5b81525090565b61220c91905b808211156122085760008160009055506001016121f0565b5090565b9056fea165627a7a7230582053f6314a42b9b7ae7bf4382baf478198a33b5d50dbbf0c1653370dc3a7eb6d6e0029",
  "source": "pragma solidity >0.5.0;\r\n\r\ncontract Marketplace {\r\n  string public name;\r\n  address public seller;\r\n  address public authority;\r\n  address public buyer;\r\n  address public bank;\r\n\r\n  uint256 public permitCount = 0;\r\n  mapping(uint256 => PermitApplication) public permits;\r\n\r\n  uint256 public loanCount = 0;\r\n  mapping(uint256 => LoanApplication) public loans;\r\n\r\n  // TODO - create the banking side of contracts - loanApplications etc\r\n\r\n  // mapping(address => Account) public accounts;\r\n\r\n  // enum to control the states of applications rather than multiple booleans\r\n  enum applicationStatus { applied, approved, denied, purchased }\r\n  applicationStatus constant default_value = applicationStatus.applied;\r\n\r\n  enum accountType { deployer, seller, authority, buyer, bank }\r\n\r\n  struct Account {\r\n    address accountAddress;\r\n    accountType account;\r\n  }\r\n\r\n  // TODO find a way for this to take a document - buffer maybe?\r\n  struct PermitApplication {\r\n    uint256 id;\r\n    address owner;\r\n    string propertyAddress;\r\n    string document;\r\n    string licenceNumber;\r\n    applicationStatus status;\r\n  }\r\n\r\n  struct LoanApplication {\r\n    uint256 id;\r\n    address owner;\r\n    string fullName;\r\n    uint256 annualIncome;\r\n    string propertyAddress;\r\n    uint256 loanAmount;\r\n    applicationStatus status;\r\n  }\r\n\r\n  event PermitCreated(\r\n    uint256 id,\r\n    address owner,\r\n    string propertyAddress,\r\n    string document,\r\n    string licenceNumber,\r\n    applicationStatus status\r\n  );\r\n\r\n  event LoanCreated(\r\n    uint256 id,\r\n    address owner,\r\n    string fullName,\r\n    uint256 annualIncome,\r\n    string propertyAddress,\r\n    uint256 loanAmount,\r\n    applicationStatus status\r\n  );\r\n\r\n  event PermitStatus(uint256 id, applicationStatus status, address authBy);\r\n\r\n  event LoanStatus(uint256 id, applicationStatus status, address authBy);\r\n\r\n  constructor() public {\r\n    name = 'SICI Real Estate Marketplace';\r\n\r\n    // Justins addresses\r\n    seller = 0x7e14E1b59aF858C2E366B1d902aBBB743275F694;\r\n    authority = 0x2b0d61c05D8caFF492E1d6a6D3451437801D4b6B;\r\n    buyer = 0x457e9ddFf1409434D618461a2f5F15586FB0eb6C;\r\n    bank = 0xFD55579F56578959D269f87D9eAB9A97A09877f8;\r\n\r\n    // Sids addresses\r\n    // seller = <ADD>;\r\n    // authority = <ADD>;\r\n    // buyer = <ADD>;\r\n    // bank = <ADD>;\r\n  }\r\n\r\n  function createPermit(\r\n    string memory _propertyAddress,\r\n    string memory _document,\r\n    string memory _licenceNumber,\r\n    applicationStatus _status\r\n  ) public {\r\n    // requires strings to not be empty\r\n    require(bytes(_propertyAddress).length > 0);\r\n    require(bytes(_document).length > 0);\r\n    require(bytes(_licenceNumber).length > 0);\r\n    // status of a new application must be applied ONLY\r\n    require(_status == applicationStatus.applied);\r\n    // only be created by a seller TODO find better implementation of this\r\n    require(msg.sender == seller);\r\n\r\n    permitCount++;\r\n    permits[permitCount] = PermitApplication(\r\n      permitCount,\r\n      msg.sender,\r\n      _propertyAddress,\r\n      _document,\r\n      _licenceNumber,\r\n      _status\r\n    );\r\n\r\n    emit PermitCreated(\r\n      permitCount,\r\n      msg.sender,\r\n      _propertyAddress,\r\n      _document,\r\n      _licenceNumber,\r\n      _status\r\n    );\r\n  }\r\n\r\n  /**\r\n   * Changes the permits status\r\n   * @param _id permit ID\r\n   * @param _status status that is being applied to the permit\r\n   */\r\n  function updatePermit(uint256 _id, applicationStatus _status) public {\r\n    // fetch permit\r\n    PermitApplication memory _permit = permits[_id];\r\n    // validate permit exists\r\n    require(_permit.id > 0 && _permit.id <= permitCount);\r\n    // validate that the status is not the same - NOT SURE THIS WORKS CORRECTLY\r\n    require(_status != _permit.status);\r\n    // validate that it is not being updated back to applied\r\n    require(_status != applicationStatus.applied);\r\n\r\n    // TODO find better implementation of auth checking - look into proof of authority if we can\r\n    // seller can not update their own permit\r\n    require(_permit.owner != msg.sender);\r\n    // only be updated by an authority\r\n    require(msg.sender == authority);\r\n\r\n    // update permit\r\n    _permit.status = _status;\r\n    permits[_id] = _permit;\r\n    // trigger event\r\n    emit PermitStatus(_id, _permit.status, msg.sender);\r\n  }\r\n\r\n  function createLoan(\r\n    string memory _fullName,\r\n    uint256 _annualIncome,\r\n    string memory _propertyAddress,\r\n    uint256 _loanAmount,\r\n    applicationStatus _status\r\n  ) public {\r\n    // requires strings to not be empty\r\n    require(bytes(_fullName).length > 0);\r\n    require(bytes(_propertyAddress).length > 0);\r\n    // requires income and loan to be greater than 0\r\n    require(_annualIncome > 0);\r\n    require(_loanAmount > 0);\r\n    // status of a new application must be applied ONLY\r\n    require(_status == applicationStatus.applied);\r\n    // only be created by a buyer TODO find better implementation of this\r\n    require(msg.sender == buyer);\r\n\r\n    loanCount++;\r\n    loans[loanCount] = LoanApplication(\r\n      loanCount,\r\n      msg.sender,\r\n      _fullName,\r\n      _annualIncome,\r\n      _propertyAddress,\r\n      _loanAmount,\r\n      _status\r\n    );\r\n\r\n    emit LoanCreated(\r\n      permitCount,\r\n      msg.sender,\r\n      _fullName,\r\n      _annualIncome,\r\n      _propertyAddress,\r\n      _loanAmount,\r\n      _status\r\n    );\r\n  }\r\n\r\n  function updateLoan(uint256 _id, applicationStatus _status) public {\r\n    LoanApplication memory _loan = loans[_id];\r\n    require(_loan.id > 0 && _loan.id <= loanCount);\r\n    require(_status != _loan.status);\r\n    require(_status != applicationStatus.applied);\r\n    require(_loan.owner != msg.sender);\r\n    require(msg.sender == bank);\r\n\r\n    _loan.status = _status;\r\n    loans[_id] = _loan;\r\n\r\n    emit LoanStatus(_id, _loan.status, msg.sender);\r\n  }\r\n}\r\n",
  "sourcePath": "C:/Users/Justin/Documents/Education/RMIT/SICI/blockchain-app/src/contracts/Marketplace.sol",
  "compiler": {
    "name": "solc",
    "version": "0.5.1+commit.c8a2cb62.Emscripten.clang"
  },
  "schemaVersion": "3.0.2",
  "updatedAt": "2021-06-09T09:40:51.682Z",
  "devdoc": {
    "methods": {
      "updatePermit(uint256,uint8)": {
        "params": {
          "_id": "permit ID\r",
          "_status": "status that is being applied to the permit\r"
        }
      }
    }
  },
  "userdoc": {
    "methods": {
      "updatePermit(uint256,uint8)": {
        "notice": "Changes the permits status\r"
      }
    }
  }
}